:1000000000308A002D28000021308400831300086E
:10001000031918280130F800F701F70B0D28F80B29
:100020000C284A30F700F70B13281628800B0A28F3
:1000300000341230A202031C2C28223084008313C7
:10004000FC3080050310800C800C000803192C285C
:100050002A280000800B29280034840183131F30D4
:10006000830583161F149F141F159F1107309C00D2
:10007000C330870083128701203087000230A1003F
:1000800004200230A100F730A2001920A10B432860
:10009000A0012008033C031C5B280310870C0230DE
:1000A000A10004200230A100F730A2001920A10B0A
:0A00B0005428A00A49283C286300E8
:02400E003A3F37
:00000001FF
;PIC16F877A
