:1000000000308A003C2C00000A108A100A11820776
:1000100028340C34013406340A108A100A1182077D
:100020004C344F344134443449344E3447342E3404
:100030002E342E342E342034253430343334753479
:1000400000340A108A100A11820720344C344134DB
:10005000503420345434523449344E3448342034EB
:10006000433443345334203400340A108A100A11C4
:1000700082072034483445344C344C344F342034D7
:10008000313436344634383437343734413421341B
:100090000034343084008313000803195D280130D4
:1000A000F800F701F70B5228F80B51284A30F700F7
:1000B000F70B58285B28800B4F2800343B0EF03993
:1000C000F7000F300805770488000000081468283E
:1000D000081000348810F030831688008312081549
:1000E0000000081400000808080E0F39BB000810B3
:1000F0000000081400000808080E0F39BA000810A4
:1001000000308316880083123B0EF700F030F705AD
:1001100077083A04F8007808BA00BA1B6B28381C34
:100120008810381888140000081100000810390ED3
:10013000BA000F30BA053A08BB005E2039080F3903
:10014000BA00BB005E2000340030831688008312A2
:100150008810081108100F30B40049200130A600A3
:100160002608033C031CBC280330BB005E2005307E
:10017000B4004920A60AB0280230BB005E20A601C8
:100180002608033C031CCD2826080420A700B8013C
:100190002708B9006A20A60AC0288A110A124E2C24
:1001A000B8010130B9006A200230B400492000349F
:1001B000350BDB28DE284030B600DF28B6010130E1
:1001C0003402B60736088038B700B8013708B900DE
:1001D0006A20003433080C3A0319F528063A03194B
:1001E000FD28023A031903290829B8010130B90092
:1001F0006A200230B40049200E290130B4000230D8
:10020000B500D8200E29B8011030B9006A200E2997
:100210000130B8003308B9006A200E2900342A08DA
:10022000F8012902031817292908F7002329F701E3
:100230000830AB00A90DF70D2A0877020318F70064
:10024000F80DAB0B1A29003478082708A900643090
:10025000AA000F217708A70078083030031D37293E
:10026000A81C3E29A8193E29281A20303A29A8118D
:1002700028122814F8077808B300EA202708A900F4
:100280000A30AA000F217708A70078083030031D34
:100290004F29A8195329281C5329281A2030F80758
:1002A0007808B300EA203030A7072708B300EA2017
:1002B0008A110A12642C80308318AB06B001B10198
:1002C0002708AF002B08AF06260803194B2AAE00FB
:1002D000F7002A080319542AAE020319F029031C57
:1002E000AE292B08B400B4172C08B3002D08B200B7
:1002F000B1010310B40CB30CB20CB10CAE0B7829E5
:10030000AF1F85293014682A30102E10301629307E
:10031000840083137D2A3012AF1B98292E1CA32939
:10032000B40CB30CB20CB10CF70A0319632AA3295D
:10033000B41BA6290310B10DB20DB30DB40DF70314
:100340000319632A98293017102A30132708AF00A1
:10035000AF1FAC29B4175C2AB4135C2A2A08AE007C
:10036000F7002608AE022708B400B4172808B30027
:100370002908B200B1010310B40CB30CB20CB10CDB
:10038000AE0BBA29AF1FC729B014682AB0102E10BF
:10039000B0162D30840083137D2AB012AF1BDA29EA
:1003A0002E1CE529B40CB30CB20CB10CF70A0319DE
:1003B000632AE529B41BE8290310B10DB20DB30D72
:1003C000B40DF7030319632ADA29B017102AB01302
:1003D0002B08AF00AF1FEE29B4175C2AB4135C2AB8
:1003E0002B08B400B4172C08B3002D08B200AF1FBF
:1003F000FD29B4133015682A3011B1012E102930AF
:10040000840083137D2AAF1B262A2708AF002E1CE9
:10041000102AB40CB30CB20CB10CF70A0319632AFE
:10042000B11F212AB20A031D212AB30A031D212A62
:10043000B40A031D212AB40CB30CB20CF70A031939
:10044000632A301BA529B01BE729452A8030B40652
:10045000B41F2E2A682A2B08AF003B2A2708AF00BA
:10046000B408031D3B2AB308031D3B2AB208031D31
:100470003B2AF7015C2AB41B452A0310B10DB20DCB
:10048000B30DB40DF70B3B2A632AAF1F492AB417EB
:100490005C2AB4135C2A2A08F7002B08B4002C0845
:1004A000B3002D08B2005C2A2608F7002708B40024
:1004B0002808B3002908B2003408F8003308F9000E
:1004C0003208FA009B2AF701F801F901FA019B2A88
:1004D000B101B209B309B409B109B10A031D762A01
:1004E000B20A031D762AB30A0319B40A3018842904
:1004F000B018C6293019FC292B2A0008B207031CA2
:10050000872AB30A031D872AB40A03192E14840309
:100510000008B307031C8F2AB40A03192E1484039E
:100520000008801F803AB40703182E14301A8B2954
:10053000B01ACD29032A8A110A12992CF701F80161
:10054000F901FA01BB01BC01BD01BE013A08390441
:10055000380437040319DC2A2030BF000310B30D20
:10056000B40DB50DB60DBB0DBC0DBD0DBE0D3A08DD
:100570003E02031DC52A39083D02031DC52A38085D
:100580003C02031DC52A37083B02031CD62A370844
:10059000BB023808031C380FBC023908031C390F92
:1005A000BD023A08031C3A0FBE020314F70DF80D02
:1005B000F90DFA0DBF0BAE2A3B30840083130034D3
:1005C0000408AB002A08AD000319722B2908B600F5
:1005D0002808B5002708B4002608B300BA01B901FD
:1005E0002030B8008230B70033080319642BBB00F9
:1005F00037080319642BBB070318052B7F30BB0298
:10060000031C642B0319642B092B8130BB070318CF
:10061000642B3B08F700F801F901FA013408BF0028
:10062000BF173508BE003608BD001830BB00BC013E
:100630003D1C322B3A08FA07031C242BF90A031D30
:10064000242BF80A0319BC173908F907031C2B2BB4
:10065000F80A0319BC173808B500B5173508F807AC
:100660000318BC17BC0DF80CF90CFA0CBF0CBE0C2F
:10067000BD0C0310BB0B172B0130F7070318642BBD
:10068000F81B492BBF0DFA0DF90DF80DF7030319EF
:10069000642BBF1F5A2BFA0A031D5A2BF90A031D9C
:1006A0005A2BF80A031D5A2BF80CF90CFA0CF70A0E
:1006B0000319642B3408BC003808BC06BC1F622B2D
:1006C000F817682BF813682BF701F801F901FA0104
:1006D0007A08A9007908A8007808A7007708A6007A
:1006E000AD0BE62A2908B6002808B5002708B40093
:1006F0002608B3003308B63CB300FA013408B7004B
:10070000B4170310B40CB50CB60CFA0CF90CF80CB9
:10071000F70CB30B812BB71F982BF709F809F909D0
:10072000FA09F70A0319F80A0319F90A0319FA0A68
:100730007A08A9007908A8007808A7007708A60019
:10074000A91FAF2BAB03AB16A609A709A809A909D6
:10075000A60A0319A70A0319A80A0319A90A3B3014
:10076000B2009A30B100CA30B000AF010A30AD001B
:100770002A080319AB0A2908B6002808B50027087B
:10078000B4002608B3003208BA003108B9003008B6
:10079000B8002F08B7009E220008A600840A0008AF
:1007A000A700840A0008A800840A0008A900FD30F8
:1007B0008407F708031DEF2B2A0A2D020319EF2BDC
:1007C0002B080319F12B0F392D020319E92B0318FC
:1007D000212CAB1B212C2B1BF12B20301D2C20306E
:1007E000AB05AB1EFF2BAB122A08031DAB0377082A
:1007F000AB002D30B300EA202B08F700AB012A082C
:100800002D02031D0D2C7708AB002E30B300EA201B
:100810002B08F7002030AB0500303030AB1E1D2C0C
:10082000AB122A08031DAB037708AB002D30B300D1
:10083000EA202B08F700AB013030F7077708B30048
:10084000EA203208B6003108B5003008B4002F089D
:10085000B300BA01B901B8010A30B7009E227A0884
:10086000B2007908B1007808B0007708AF00AD0B8E
:10087000BB2B8A110A12AE2C840183131F3083050F
:1008800083161F149F141F159F1107309C0083129D
:10089000A101A201A301A401A501A428D020A101C6
:1008A0000130B400B500D820A60126080C20A60A05
:1008B000F700B300EA200C302602031D552C210856
:1008C000A7000330A80024292530B300EA20013016
:1008D000B4000230B500D8200130A1002108103C3E
:1008E000031C772CDB30B300EA20A10A6E2C023007
:1008F000A600FA30B4004920A60B792C0130A100E3
:100900002108103C031CC22C0C30B4000130B5008F
:10091000D82083102508A9002408A8002308A700D0
:100920002208A600AD01AC014830AB008130AA001E
:100930005B297A08A5007908A4007808A300770845
:10094000A200423084002508A9002408A80023083A
:10095000A7002208A6000130AA00E02A2530B30033
:10096000EA202108B4000230B500D820FF30B300DF
:10097000EA200230A600FA30B4004920A60BBB2CB6
:10098000A10A802CD0200130B400B500D820A601E7
:1009900026082120A60AF700B300EA200F3026021D
:1009A000031DC82C0130B4000230B500D820A601C8
:1009B00026083520A60AF700B300EA200F302602E9
:0809C000031DD82CC32C6300B9
:02400E003A3F37
:00000001FF
;PIC16F877A
